:020000020000FC
:020000001AC024
:1000340053C020E12EBF2FEF2DBF2FEF21B927B9D9
:1000440024B927982F9828982D9A2B9A2E9A209184
:100054007A002F7720937A002091300020682F7B3C
:100064002093300020916000277B2093600027E4D8
:100074002093640022272093800029E020938100AC
:1000840022E0209389002BE72093880022E020932C
:100094006F00FF24FEBA21E02ABDF9E0E4E12F015C
:1000A40090649062DD24EE247CE480E00E94B50339
:1000B40078940E94D002603818F40E940503F9CFA6
:1000C400685CB8F3F3E1EEEB660FE60FFF1D2591D4
:1000D400F491E22F0995EDCF0091840000FD00C05A
:1000E4002A98AFB605B10460302E3F01F201159194
:1000F4001F3F29F09F770000000000001DC090689A
:100104000EB306FD0DC01FE00F71011729F40EB3E5
:10011400007C00640EBB0DC00EB303950EBB09C07A
:1001240000000000000000000000000000000000CB
:100134000000F9E0E4E1159117FD299817FF299AC9
:1001440005912F01F3012AB4020D00000000000004
:100154002A9A16FD1895B2B0C8B08BB09AB02D9AF1
:100164002C9AFAB8FBB802B9F8B8000000000000F5
:10017400000000000000000000000000000000007B
:10018400000000001FEF2B98139518B9139518B9A8
:10019400139518B9139518B9139518B9139518B977
:1001A400139518B9139518B9139518B9139518B967
:1001B400139518B9139518B9139518B9139518B957
:1001C400139518B9139518B9139518B9139518B947
:10058400139518B9139518B9B2B8C8B88BB89AB8F6
:1005940035B8AFBE189597FFFECF08952F933F93BC
:1005A4004F935F932E980E94CD0296FF04C02EB302
:1005B40026FD0E945903FAB8FBB823B127FFF3CFF5
:1005C4002D986627000000000000000069B12D9AF4
:1005D4002E9A5F914F913F912F910895FEBA0E94F8
:1005E40059030E94B5030E9475047CE48F2DDD2419
:1005F400EE2408953EB337FD0E945903DD24EE2412
:100604000E949F0308956032A8F096FF0DC03EB388
:1006140037FD0E945903262F0E941E040E947F0367
:10062400FEBA0E9459030895262F0E941E040E94B8
:100634007F0308953EB337FD0E9459030E94CE0301
:10064400FEBA0E94590335CD08950E94D002362F78
:100654000E94D002462F0E94D002562F0E946504A9
:100664000895089508950E94D002262F0E94D00272
:10067400562F3EB337FD0E945903E22ED52E08951E
:100684000E94D002762F08950E94D002862F0895EA
:100694003EB337FD0E9459039F7B08959064FEBAD0
:1006A4000E94590308959F7D08959062089530E84B
:1006B4002EB323272F7B2EBB2C9AFAB8FBB82AE043
:1006C4002E9D38E0030E2AB5020E02B83D9D039418
:1006D40008B83FEF46E029B12327FBB85FEF5AB9CA
:1006E4002BB92C98000000002C9AFAB8FBB828B15A
:1006F400239528B94A9579F70895D39430E2D3160F
:1007040050F0DD24E39438E1E31629F4EA9495FFEC
:1007140002C00E944F040895DA942AF43FE1D32ED4
:10072400EA940AF4EE240895EA940AF4EE2408956F
:100734004E2D473109F0E394089521E02ABD2C9809
:10074400FBB85FEF5AB98BB922B930EF222728B929
:100754002A95E9F722B1239522B93A95B9F7FAB85F
:10076400FBB82C9A089521E02ABD2C98FBB85FEFC2
:100774005AB942E0189AF2B83327222728B92A95A1
:10078400E9F722B1239522B93A95B9F74A9591F739
:10079400FAB8FBB82C9A08956D3079F0683071F08E
:1007A400633169F0643161F0603159F0613151F0C5
:1007B400613049F0623041F0089507C00FC014C0A1
:1007C40016C018C01AC01CC028C0DD244E2D4731E5
:1007D40011F0E39408950E944F0408950E948E033B
:1007E40020E20E941E0408950E94960308950E9428
:1007F4009A0308950E948E0308950E947F0308952A
:100804000E94D0026A9519F00E949603FBCF3EB372
:1008140037FD0E945903DD2408950E94D0026A9591
:1008240019F00E949A03FBCF0E94D0023EB337FD19
:100834000E945903D62E0895FDE0E0E320523AE0E9
:10084400239FE00DF11D2AE02E9D2AB5020E02B869
:1008540038E03D9D08B8402DFBB85FEF5AB95AE027
:10086400059048B938E0282F07FC272F2BB9000C36
:100874002C9800000000000000002C9A3A9521F00A
:1008840018B0139418B8EFCF5A9521F012B01394FE
:1008940012B8E6CFFAB8FBB808952AB5265F2ABD88
:1008A4005AE04FEF4AB98BB92C982AB52A5122B98C
:1008B400332738B9000000003395D9F723955A95AA
:1008C400B1F72C9A08952AB5420F42B938B95BB9E9
:1008D4005FEF5AB92C9800000000000000002C9A29
:1008E400FAB8FBB80895F0E1E6EE24E622B930E662
:1008F40038B9AFEFAAB905900BB82C9800002C9A20
:10090400FAB833953439A1F72395223779F7089546
:10091400C000C000400040004000400040004000D3
:1009240040004000400040004000400040004000C3
:1009340040004000400040004000400040004000B3
:1009440040004000400040004000400040004000A3
:1009540040004000400000000000000100010002CF
:100964000002000300030004000400050005000663
:100974000006000700070008000800090009000A33
:10098400000A000B000B000C000C000D000D000E03
:10099400000E000F000F00100010001100110012D3
:1009A40000120013001300140014001500150016A3
:1009B4000016001700170018001800190019001A73
:1009C400001A001B001B001C001C001D001D001E43
:1009D400001E001F001F0020002000210021002213
:1009E40000220023002300240024002500250026E3
:1009F4000026002700270028002800290029002AB3
:100A0400002A002B002B002C002C002D002D002E82
:100A1400002E002F002F0030003000310031003252
:100A24000032003300330034003400350035003622
:100A34000036003700370038003800390039003AF2
:100A4400003A003B003B003C003C003D003D003EC2
:100A5400003E003F003F0040004000410041004292
:100A64000042004300430044004400450045004662
:100A74000046004700470048004800490049004A32
:100A8400004A004B004B004C004C004D004D004E02
:100A9400004E004F004F00500050005100510052D2
:100AA40000520053005300540054005500550056A2
:100AB4000056005700570058005800590059005A72
:100AC400005A005B005B005C005C005D005D005E42
:100AD400005E005F005F0060006000610061006212
:100AE40000620063006300640064006500650066E2
:100AF4000066006700670068006800690069006AB2
:100B0400006A006B006B006C006C006D006D006E81
:100B1400006E006F006F0070007000710071007251
:100B24000072007300730074007400750075007621
:100B34000076007700770078007800790079007AF1
:100B4400007A007B007B007C007C007D007D007EC1
:100B5400007E007F007F0080008000810081008291
:100B64000082008300830084008400850085008661
:100B74000086008700870088008800890089008A31
:100B8400008A008B008B008C008C008D008D008E01
:100B9400008E008F008F00900090009100910092D1
:100BA40000920093009300940094009500950096A1
:100BB4000096009700970098009800990099009A71
:100BC400009A009B009B009C009C009D009D009E41
:100BD400009E009F009F00A000A000A100A100A211
:100BE40000A200A300A300A400A400A500A500A6E1
:100BF40000A600A700A700A800A800A900A900AAB1
:100C040000AA00AB00AB00AC00AC00AD00AD00AE80
:100C140000AE00AF00AF00B000B000B100B100B250
:100C240000B200B300B300B400B400B500B500B620
:100C340000B600B700B700B800B800B900B900BAF0
:100C440000BA00BB00BB00BC00BC00BD00BD00BEC0
:100C540000BE00BF00BF00C000C000C100C100C290
:100C640000C200C300C300C400C400C500C500C660
:100C740000C600C700C700C800C800C900C900CA30
:100C840000CA00CB00CB00CC00CC00CD00CD00CE00
:100C940000CE00CF00CF00D000D000D100D100D2D0
:100CA40000D200D300D300D400D400D500D500D6A0
:100CB40000D600D700D700D800D800D900D900DA70
:100CC40000DA00DB00DB00DC00DC00DD00DD00DE40
:100CD40000DE00DF00DF00E000E000E100E100E210
:100CE40000E200E300E300E400E400E500E500E6E0
:100CF40000E600E700E700E800E800E900E900EAB0
:100D040000EA00EB00EB00EC00EC00ED00ED00EE7F
:100D140000EE00EF00EF40004000400040004000C3
:100D240040004000400040004000FF000000000080
:100D3400000000000000001010101010001000004F
:100D4400002424240000000000000024247E247ECB
:100D54002424000000183E403C027C1800000000DF
:100D640062640810264600000030483056888876B1
:100D740000000010102000000000000000102040BF
:100D84004040201000000020100808081020000037
:100D940000004438FE3844000000000010107C10AD
:100DA40010000000000000000000101020000000EF
:100DB40000007E0000000000000000000000101091
:100DC400000000000204081020400000003C4246DD
:100DD4004A52623C0000001030501010107C000099
:100DE400003C42020C30427E0000003C42021C02E5
:100DF400423C00000008182848FE081C0000007E41
:100E0400407C0202423C0000001C20407C42423CE8
:100E14000000007E4204081010100000003C424212
:100E24003C42423C0000003C42423E020438000086
:100E3400000010100000101000000000101000004E
:100E440010102000000810204020100800000000AE
:100E5400007E00007E000000001008040204081058
:100E64000000003C4202040800080000003C425E0E
:100E7400525E403C000000182442427E4242000080
:100E8400007C22223C22227C0000001C22404040A4
:100E9400221C000000782422222224780000007EF4
:100EA40022283828227E0000007E2228382820703C
:100EB4000000001C2240404E221E0000004242421C
:100EC4007E4242420000003810101010103800001A
:100ED400000E04040444443800000062242830282E
:100EE40024630000007020202020227E0000006384
:100EF40055494141414100000062524A4642424242
:100F04000000003C42424242423C0000007C22225B
:100F14003C2020700000003C4242424A3C03000056
:100F2400007C22223C2824720000003C42403C0207
:100F3400423C0000007F49080808081C00000042E9
:100F440042424242423C00000041414141221408D5
:100F54000000004141414949493600000041221442
:100F6400081422410000004122140808081C000053
:100F7400007F42040810217F000000784040404078
:100F8400407800000080402010080402000000782F
:100F940008080808087800000010284482000000AF
:100FA40000000000000000000000FF000010100816
:100FB4000000000000000000003C023E423F000030
:100FC400006020202E31312E00000000003C424001
:100FD400423C0000000602023A46463B0000000084
:100FE400003C427E403C0000000C121038101038C7
:100FF40000000000003D42423E027C000060202CC4
:10100400322222620000001000301010103800005C
:1010140000020006020242423C0000602024283004
:1010240028260000003010101010103800000000B6
:1010340000764949494900000000005C624242428E
:1010440000000000003C4242423C00000000006CF2
:1010540032322C207000000000364C4C34040E0058
:101064000000006C3222207000000000003E403C72
:10107400027C00000010107C1010120C0000000014
:1010840000424242463A0000000000414122140856
:1010940000000000004149494936000000000044B6
:1010A4002810284400000000004242423E027C0016
:1010B4000000007C0810207C0000000C1010601060
:1010C400100C000000101010001010100000003070
:1010D400080806080830000000324C000000000038
:1010E40000000000000000000000000000000000FC
:1010F40000000000000000000000000000000000EC
:1011040000000000000000000000000000000000DB
:1011140000000000000000000000000000000000CB
:1011240000000000000000000000000000000000BB
:101134000000000000000000FFFFFFFFFFFF0000B1
:101144000000FFFFFFFFFF000000000000000000A0
:1011540043430000000000000000004C4C0000006D
:101164000000000000000000000000FFFFFFFFFF80
:10117400FFFFFF0000FFFFFFFFFFFFFF0000000075
:101184000000000043430000000000000000004C89
:101194004C0000000000000000000000000000FF00
:1011A400FF00000000FFFF00FFFFFF000000000041
:1011B40000000000000000004343000000000000A5
:1011C4000000004C4C000000000000000000000083
:1011D400000000FFFF00000000FFFF00FFFF000011
:1011E4000000000000000000000000004343000075
:1011F400000000000000004C4C0000BCBC000000DB
:1012040000000000000000AAAA00000000AAAA0032
:10121400AAAA000000000000000000000000000076
:10122400434300008F8F8F8F8F00004C4C0000BC15
:10123400BC00000070707070700000AAAAAAAAAA6C
:10124400AAAAAA00AAAA0000000000000000000048
:10125400434343434343008F8F0000008F8F004C70
:101264004C00BCBCBCBC000000000000707000AAB4
:10127400AAAAAAAAAAAA0000AAAA0000000000001A
:1012840000000043430000004343008F8F00000030
:101294008F8F004C4C0000BCBC000000000000001C
:1012A400707000AAAA00000000000000AAAA0000B2
:1012B4000000000000000043430000004343008F8F
:1012C4008F8F8F8F8F00004C4C0000BCBC0000003F
:1012D40070707070707000555500000000000000C0
:1012E40055550000000000000000004343000000CA
:1012F4004343008F8F0000000000004C4C0000BCF2
:10130400BC000070700000007070005555000000B3
:101314000000000055555500000000000000004387
:10132400430000004343008F8F0000000000004C86
:101334004C0000BCBC0000707000000070700055D0
:1013440055000000000000000055555555555555F1
:101354000000000043434343430000008F8F8F8FFE
:101364008F0000004C4C0000BCBC0000707070701A
:1013740070000055550000000000000000005555A5
:10138400555555000000000000000000000000005A
:101394000000000000000000000000000000000049
:1013A4000000000000000000000000000000000039
:1013B40000000000000000000000F002FC0227030F
:1013C400330334033503420346034A0350035503EE
:0213D4005703BD
:00000001FF
